:030000000209836F
:0C098300787FE4F6D8FD75812C0209CACB
:100ADA007072696E7420636F756E74657200666CED
:100AEA00617368206C63640073686F772073696749
:020AFA006E008C
:100B1C000108001509486561767920747261666672
:0A0B2C006963206F6E20343035003D
:1008DF00E4F51E75A881120AFCD280D281D282D291
:1008EF0080D281D282E51E14602D1460451460639E
:1008FF00240370E5D284D282C280C285E508600DE0
:10090F00FD7F067E001208057508FF8008E4FD7F55
:10091F0006FE120805051ED280C281E508F4700D8F
:10092F00AD087F03FE120805E4F5088003120800E6
:10093F00051ED281C283C282E508600DFD7F067E4F
:10094F00001208057508FF8008E4FD7F06FE1208F7
:10095F0005051ED283C284C282E508F4700DAD086E
:10096F007F03FE120805E4F5088003120800E4F582
:04097F001E0208E864
:03000300020B5A93
:040B5A0075080132E7
:05080000E4FD7F03FE92
:040805008E1F8F2093
:10080900ED700302089B64017044120B387F80125B
:100819000B3E7BFF7A0A79DA120A87AE1FAF207C7A
:10082900037DE8120A3CC3E5229FE5219E501C7511
:100839008901758A66758CFCD28CA28DB340FB0543
:1008490022E52270020521C28D80D0C28C22120BB2
:10085900377F80120B3E7BFF7A0A79E8120A87AE4E
:100869001FAF207C037DE8120A3CC3E5229FE521E6
:100879009E501C758901758A66758CFCD28CA28D77
:10088900B340FB0522E52270020521C28D80D0C24A
:100899008C22120B377F80120B3E7BFF7A0A79F28A
:1008A900120A87AE1FAF207C037DE8120A3CC3E51C
:1008B900229FE5219E501C758901758A66758CFCFD
:1008C900D28CA28DB340FB0522E52270020521C21C
:0508D9008D80D0C28CEF
:0108DE0022F7
:100AFC007F147E00120ABA7F38120B3E7F0C120B49
:100B0C003E7F06120B3E7F01120B3E7F80020B3E96
:080AB200C2A1D2A27F017E0067
:100ABA00E4FDFCC3ED9FEC9E5015E4FBFA0BBB0072
:0F0ACA00010AEB64704A70F50DBD00010C80E469
:010AD90022FA
:070B3700E4F521F5227F0126
:0E0B3E008F90C2A0120AB2C2A27F05020ABAAC
:0E0B4C008F90D2A0120AB2C2A27F05020ABA8E
:060A87008B238A2489255F
:100A8D00E4F526F527AB23AA24A9258527828526FB
:100A9D0083120A0FFF600D120B4C0527E52770E539
:040AAD00052680E1B9
:010AB1002222
:100A4E008F288D298B2A8A2B892CEF3395E04F70B6
:100A5E0008E529540F44808013AF28EF3395E0FE4C
:100A6E00EF64014E700AE529540F44C0FF120B3E8D
:090A7E00AB2AAA2BA92C020A875D
:10098F000208DFE493A3F8E493A34003F68001F297
:10099F0008DFF48029E493A3F85407240CC8C33369
:1009AF00C4540F4420C8834004F456800146F6DF38
:1009BF00E4800B0102040810204080900B1CE47EA1
:1009CF00019360BCA3FF543F30E509541FFEE4932D
:1009DF00A360010ECF54C025E060A840B8E493A3F4
:1009EF00FAE493A3F8E493A3C8C582C8CAC583CA1F
:1009FF00F0A3C8C582C8CAC583CADFE9DEE780BED7
:010B360000BE
:100A0F00BB010CE58229F582E5833AF583E022509C
:100A1F0006E92582F8E622BBFE06E92582F8E222E6
:0D0A2F00E58229F582E5833AF583E4932200
:100A3C00EF8DF0A4A8F0CF8CF0A428CE8DF0A42ECE
:020A4C00FE2288
:00000001FF
